{"abi":[{"type":"constructor","inputs":[{"name":"operatorRewardsImplementation","type":"address","internalType":"address"}],"stateMutability":"nonpayable"},{"type":"function","name":"create","inputs":[],"outputs":[{"name":"","type":"address","internalType":"address"}],"stateMutability":"nonpayable"},{"type":"function","name":"entity","inputs":[{"name":"index","type":"uint256","internalType":"uint256"}],"outputs":[{"name":"","type":"address","internalType":"address"}],"stateMutability":"view"},{"type":"function","name":"isEntity","inputs":[{"name":"entity_","type":"address","internalType":"address"}],"outputs":[{"name":"","type":"bool","internalType":"bool"}],"stateMutability":"view"},{"type":"function","name":"totalEntities","inputs":[],"outputs":[{"name":"","type":"uint256","internalType":"uint256"}],"stateMutability":"view"},{"type":"event","name":"AddEntity","inputs":[{"name":"entity","type":"address","indexed":true,"internalType":"address"}],"anonymous":false},{"type":"error","name":"EntityNotExist","inputs":[]},{"type":"error","name":"FailedDeployment","inputs":[]},{"type":"error","name":"InsufficientBalance","inputs":[{"name":"balance","type":"uint256","internalType":"uint256"},{"name":"needed","type":"uint256","internalType":"uint256"}]}],"bytecode":{"object":"0x60a034606557601f61033238819003918201601f19168301916001600160401b03831184841017606957808492602094604052833981010312606557516001600160a01b03811681036065576080526040516102b4908161007e82396080518160570152f35b5f80fd5b634e487b7160e01b5f52604160045260245ffdfe60806040526004361015610011575f80fd5b5f3560e01c806314887c58146101e65780635cd8b15e146101ca578063b42ba2a21461015e5763efc81a8c14610045575f80fd5b3461015a575f36600319011261015a577f00000000000000000000000000000000000000000000000000000000000000005f54604051906020820190815233604083015260408252606082019180831067ffffffffffffffff841117610146576e5af43d82803e903d91602b57fd5bf39260405251902091763d602d80600a3d3981f3363d3d373d3d3d363d7300000062ffffff8260881c16175f5260781b1760205260018060a01b0390603760095ff51680156101375780610109602092610224565b5060405190807fb919910dcefbf753bfd926ab3b1d3f85d877190c3d01ba1bd585047b99b99f0b5f80a28152f35b63b06ebf3d60e01b5f5260045ffd5b634e487b7160e01b5f52604160045260245ffd5b5f80fd5b3461015a57602036600319011261015a576004355f548110156101b6575f80527f290decd9548b62a8d60345a988386fc84ba6bc95484008f6362f93160ef3e56301546040516001600160a01b039091168152602090f35b634e487b7160e01b5f52603260045260245ffd5b3461015a575f36600319011261015a5760205f54604051908152f35b3461015a57602036600319011261015a576004356001600160a01b0381169081900361015a575f526001602052602060405f20541515604051908152f35b805f52600160205260405f2054155f14610279575f546801000000000000000081101561014657600181015f555f548110156101b65781905f805260205f2001555f54905f52600160205260405f2055600190565b505f9056fea2646970667358221220822ab20d40e2896709d236b8f6a370cdf3ee341dfe238564fd39b8aa5a6c291664736f6c63430008230033","linkReferences":{}},"methodIdentifiers":{"create()":"efc81a8c","entity(uint256)":"b42ba2a2","isEntity(address)":"14887c58","totalEntities()":"5cd8b15e"},"id":153}